{
    "contractName": "Assignment6",
    "abi": [
        {
            "anonymous": false,
            "inputs": [
                {
                    "indexed": false,
                    "internalType": "address",
                    "name": "sender",
                    "type": "address"
                },
                {
                    "indexed": false,
                    "internalType": "uint256",
                    "name": "amount",
                    "type": "uint256"
                }
            ],
            "name": "FundsDeposited",
            "type": "event"
        },
        {
            "anonymous": false,
            "inputs": [
                {
                    "indexed": false,
                    "internalType": "address",
                    "name": "receiver",
                    "type": "address"
                },
                {
                    "indexed": false,
                    "internalType": "uint256",
                    "name": "amount",
                    "type": "uint256"
                }
            ],
            "name": "FundsWithdrawn",
            "type": "event"
        },
        {
            "inputs": [
                {
                    "internalType": "address",
                    "name": "",
                    "type": "address"
                }
            ],
            "name": "balances",
            "outputs": [
                {
                    "internalType": "uint256",
                    "name": "",
                    "type": "uint256"
                }
            ],
            "stateMutability": "view",
            "type": "function"
        },
        {
            "inputs": [],
            "name": "deposit",
            "outputs": [],
            "stateMutability": "payable",
            "type": "function"
        },
        {
            "inputs": [],
            "name": "getContractBalance",
            "outputs": [
                {
                    "internalType": "uint256",
                    "name": "",
                    "type": "uint256"
                }
            ],
            "stateMutability": "view",
            "type": "function"
        },
        {
            "inputs": [
                {
                    "internalType": "uint256",
                    "name": "amount",
                    "type": "uint256"
                }
            ],
            "name": "withdraw",
            "outputs": [],
            "stateMutability": "nonpayable",
            "type": "function"
        }
    ],
    "bytecode": "60808060405234601557610227908161001a8239f35b5f80fdfe6080806040526004361015610012575f80fd5b5f3560e01c90816327e235e3146101b9575080632e1a7d4d146100d85780636f9fb98a146100bd5763d0e30db014610048575f80fd5b5f3660031901126100b957335f525f60205260405f208054903482018092116100a55755604080513381523460208201527f543ba50a5eec5e6178218e364b1d0f396157b3c8fa278522c2cb7fd99407d47491819081015b0390a1005b634e487b7160e01b5f52601160045260245ffd5b5f80fd5b346100b9575f3660031901126100b957602047604051908152f35b346100b95760203660031901126100b957600435335f525f6020528060405f20541061017d57335f525f60205260405f208054908282039182116100a55755805f8115610174575b5f80809381933390f115610169576040805133815260208101929092527feaff4b37086828766ad3268786972c0cd24259d4c87a80f9d3963a3c3d999b0d9190819081016100a0565b6040513d5f823e3d90fd5b506108fc610120565b60405162461bcd60e51b8152602060048201526014602482015273496e73756666696369656e742062616c616e636560601b6044820152606490fd5b346100b95760203660031901126100b9576004356001600160a01b03811691908290036100b9576020915f525f825260405f20548152f3fea26469706673582212207d361056607b13e5133f84b63e53e25407c306897c3a3ceda908333fcc00fe7164736f6c634300081c0033",
    "sourcePath": "e:/{zeroXcoder} My trip/BlOcK_ChAiN/Assignment/bootcamp25-assignment6-ZeroXcode0101/src/Assignment6.sol",
    "compiler": {
        "name": "solc",
        "version": "0.8.28+commit.7893614a"
    },
    "functionHashes": {
        "balances(address)": "27e235e3",
        "deposit()": "d0e30db0",
        "getContractBalance()": "6f9fb98a",
        "withdraw(uint256)": "2e1a7d4d"
    },
    "gasEstimates": {
        "creation": {
            "codeDepositCost": "110200",
            "executionCost": "165",
            "totalCost": "110365"
        },
        "external": {
            "balances(address)": "2361",
            "deposit()": "25802",
            "getContractBalance()": "202",
            "withdraw(uint256)": "infinite"
        }
    }
}